{
  "contractName": "Token",
  "abi": [
    {
      "inputs": [],
      "stateMutability": "nonpayable",
      "type": "constructor"
    },
    {
      "anonymous": false,
      "inputs": [
        {
          "indexed": true,
          "internalType": "address",
          "name": "owner",
          "type": "address"
        },
        {
          "indexed": true,
          "internalType": "address",
          "name": "spender",
          "type": "address"
        },
        {
          "indexed": false,
          "internalType": "uint256",
          "name": "value",
          "type": "uint256"
        }
      ],
      "name": "Approval",
      "type": "event"
    },
    {
      "anonymous": false,
      "inputs": [
        {
          "indexed": true,
          "internalType": "address",
          "name": "previousOwner",
          "type": "address"
        },
        {
          "indexed": true,
          "internalType": "address",
          "name": "newOwner",
          "type": "address"
        }
      ],
      "name": "OwnershipTransferred",
      "type": "event"
    },
    {
      "anonymous": false,
      "inputs": [
        {
          "indexed": true,
          "internalType": "address",
          "name": "from",
          "type": "address"
        },
        {
          "indexed": true,
          "internalType": "address",
          "name": "to",
          "type": "address"
        },
        {
          "indexed": false,
          "internalType": "uint256",
          "name": "value",
          "type": "uint256"
        }
      ],
      "name": "Transfer",
      "type": "event"
    },
    {
      "inputs": [
        {
          "internalType": "address",
          "name": "owner",
          "type": "address"
        },
        {
          "internalType": "address",
          "name": "spender",
          "type": "address"
        }
      ],
      "name": "allowance",
      "outputs": [
        {
          "internalType": "uint256",
          "name": "",
          "type": "uint256"
        }
      ],
      "stateMutability": "view",
      "type": "function",
      "constant": true
    },
    {
      "inputs": [
        {
          "internalType": "address",
          "name": "spender",
          "type": "address"
        },
        {
          "internalType": "uint256",
          "name": "amount",
          "type": "uint256"
        }
      ],
      "name": "approve",
      "outputs": [
        {
          "internalType": "bool",
          "name": "",
          "type": "bool"
        }
      ],
      "stateMutability": "nonpayable",
      "type": "function"
    },
    {
      "inputs": [
        {
          "internalType": "address",
          "name": "account",
          "type": "address"
        }
      ],
      "name": "balanceOf",
      "outputs": [
        {
          "internalType": "uint256",
          "name": "",
          "type": "uint256"
        }
      ],
      "stateMutability": "view",
      "type": "function",
      "constant": true
    },
    {
      "inputs": [
        {
          "internalType": "uint256",
          "name": "",
          "type": "uint256"
        },
        {
          "internalType": "address",
          "name": "",
          "type": "address"
        }
      ],
      "name": "canVote",
      "outputs": [
        {
          "internalType": "bool",
          "name": "",
          "type": "bool"
        }
      ],
      "stateMutability": "view",
      "type": "function",
      "constant": true
    },
    {
      "inputs": [],
      "name": "decimals",
      "outputs": [
        {
          "internalType": "uint8",
          "name": "",
          "type": "uint8"
        }
      ],
      "stateMutability": "view",
      "type": "function",
      "constant": true
    },
    {
      "inputs": [
        {
          "internalType": "address",
          "name": "spender",
          "type": "address"
        },
        {
          "internalType": "uint256",
          "name": "subtractedValue",
          "type": "uint256"
        }
      ],
      "name": "decreaseAllowance",
      "outputs": [
        {
          "internalType": "bool",
          "name": "",
          "type": "bool"
        }
      ],
      "stateMutability": "nonpayable",
      "type": "function"
    },
    {
      "inputs": [
        {
          "internalType": "uint256",
          "name": "",
          "type": "uint256"
        }
      ],
      "name": "delegateVoters",
      "outputs": [
        {
          "internalType": "address",
          "name": "",
          "type": "address"
        }
      ],
      "stateMutability": "view",
      "type": "function",
      "constant": true
    },
    {
      "inputs": [],
      "name": "fee",
      "outputs": [
        {
          "internalType": "uint256",
          "name": "",
          "type": "uint256"
        }
      ],
      "stateMutability": "view",
      "type": "function",
      "constant": true
    },
    {
      "inputs": [
        {
          "internalType": "address",
          "name": "",
          "type": "address"
        }
      ],
      "name": "hasVotes",
      "outputs": [
        {
          "internalType": "uint256",
          "name": "",
          "type": "uint256"
        }
      ],
      "stateMutability": "view",
      "type": "function",
      "constant": true
    },
    {
      "inputs": [
        {
          "internalType": "address",
          "name": "spender",
          "type": "address"
        },
        {
          "internalType": "uint256",
          "name": "addedValue",
          "type": "uint256"
        }
      ],
      "name": "increaseAllowance",
      "outputs": [
        {
          "internalType": "bool",
          "name": "",
          "type": "bool"
        }
      ],
      "stateMutability": "nonpayable",
      "type": "function"
    },
    {
      "inputs": [],
      "name": "max_supply",
      "outputs": [
        {
          "internalType": "uint256",
          "name": "",
          "type": "uint256"
        }
      ],
      "stateMutability": "view",
      "type": "function",
      "constant": true
    },
    {
      "inputs": [],
      "name": "name",
      "outputs": [
        {
          "internalType": "string",
          "name": "",
          "type": "string"
        }
      ],
      "stateMutability": "view",
      "type": "function",
      "constant": true
    },
    {
      "inputs": [],
      "name": "owner",
      "outputs": [
        {
          "internalType": "address",
          "name": "",
          "type": "address"
        }
      ],
      "stateMutability": "view",
      "type": "function",
      "constant": true
    },
    {
      "inputs": [],
      "name": "renounceOwnership",
      "outputs": [],
      "stateMutability": "nonpayable",
      "type": "function"
    },
    {
      "inputs": [],
      "name": "symbol",
      "outputs": [
        {
          "internalType": "string",
          "name": "",
          "type": "string"
        }
      ],
      "stateMutability": "view",
      "type": "function",
      "constant": true
    },
    {
      "inputs": [],
      "name": "totalSupply",
      "outputs": [
        {
          "internalType": "uint256",
          "name": "",
          "type": "uint256"
        }
      ],
      "stateMutability": "view",
      "type": "function",
      "constant": true
    },
    {
      "inputs": [
        {
          "internalType": "address",
          "name": "from",
          "type": "address"
        },
        {
          "internalType": "address",
          "name": "to",
          "type": "address"
        },
        {
          "internalType": "uint256",
          "name": "amount",
          "type": "uint256"
        }
      ],
      "name": "transferFrom",
      "outputs": [
        {
          "internalType": "bool",
          "name": "",
          "type": "bool"
        }
      ],
      "stateMutability": "nonpayable",
      "type": "function"
    },
    {
      "inputs": [
        {
          "internalType": "address",
          "name": "newOwner",
          "type": "address"
        }
      ],
      "name": "transferOwnership",
      "outputs": [],
      "stateMutability": "nonpayable",
      "type": "function"
    },
    {
      "inputs": [],
      "name": "mint",
      "outputs": [],
      "stateMutability": "payable",
      "type": "function",
      "payable": true
    },
    {
      "inputs": [
        {
          "internalType": "address",
          "name": "_to",
          "type": "address"
        }
      ],
      "name": "designate",
      "outputs": [],
      "stateMutability": "nonpayable",
      "type": "function"
    },
    {
      "inputs": [
        {
          "internalType": "uint256",
          "name": "_proposalId",
          "type": "uint256"
        }
      ],
      "name": "registerVoter",
      "outputs": [],
      "stateMutability": "nonpayable",
      "type": "function"
    },
    {
      "inputs": [
        {
          "internalType": "address",
          "name": "_sender",
          "type": "address"
        }
      ],
      "name": "getVotes",
      "outputs": [
        {
          "internalType": "uint256",
          "name": "",
          "type": "uint256"
        }
      ],
      "stateMutability": "view",
      "type": "function",
      "constant": true
    },
    {
      "inputs": [
        {
          "internalType": "address",
          "name": "_sender",
          "type": "address"
        },
        {
          "internalType": "uint256",
          "name": "_proposalId",
          "type": "uint256"
        }
      ],
      "name": "verifyVoters",
      "outputs": [
        {
          "internalType": "bool",
          "name": "",
          "type": "bool"
        }
      ],
      "stateMutability": "view",
      "type": "function",
      "constant": true
    },
    {
      "inputs": [
        {
          "internalType": "address",
          "name": "to",
          "type": "address"
        },
        {
          "internalType": "uint256",
          "name": "amount",
          "type": "uint256"
        }
      ],
      "name": "transfer",
      "outputs": [
        {
          "internalType": "bool",
          "name": "",
          "type": "bool"
        }
      ],
      "stateMutability": "nonpayable",
      "type": "function"
    },
    {
      "inputs": [
        {
          "internalType": "uint256",
          "name": "_id",
          "type": "uint256"
        },
        {
          "internalType": "address",
          "name": "_receiver",
          "type": "address"
        }
      ],
      "name": "transfer",
      "outputs": [],
      "stateMutability": "nonpayable",
      "type": "function"
    }
  ],
  "bytecode": "0x60806040523480156200001157600080fd5b506040518060400160405280600881526020017f42616c6c6f6f6e730000000000000000000000000000000000000000000000008152506040518060400160405280600381526020017f42414c0000000000000000000000000000000000000000000000000000000000815250816003908051906020019062000096929190620001b5565b508060049080519060200190620000af929190620001b5565b505050620000d2620000c6620000e760201b60201c565b620000ef60201b60201c565b670de0b6b3a7640000600a81905550620002c9565b600033905090565b6000600560009054906101000a900473ffffffffffffffffffffffffffffffffffffffff16905081600560006101000a81548173ffffffffffffffffffffffffffffffffffffffff021916908373ffffffffffffffffffffffffffffffffffffffff1602179055508173ffffffffffffffffffffffffffffffffffffffff168173ffffffffffffffffffffffffffffffffffffffff167f8be0079c531659141344cd1fd0a4f28419497f9722a3daafe3b4186f6b6457e060405160405180910390a35050565b828054620001c39062000294565b90600052602060002090601f016020900481019282620001e7576000855562000233565b82601f106200020257805160ff191683800117855562000233565b8280016001018555821562000233579182015b828111156200023257825182559160200191906001019062000215565b5b50905062000242919062000246565b5090565b5b808211156200026157600081600090555060010162000247565b5090565b7f4e487b7100000000000000000000000000000000000000000000000000000000600052602260045260246000fd5b60006002820490506001821680620002ad57607f821691505b602082108103620002c357620002c262000265565b5b50919050565b61248f80620002d96000396000f3fe6080604052600436106101665760003560e01c80638a333b50116100d1578063a457c2d71161008a578063cdb2867b11610064578063cdb2867b1461056b578063dd62ed3e146105a8578063ddca3f43146105e5578063f2fde38b1461061057610166565b8063a457c2d7146104c8578063a9059cbb14610505578063b7760c8f1461054257610166565b80638a333b50146103a45780638afc33f6146103cf5780638da5cb5b1461040c57806395d89b41146104375780639ab24eb014610462578063a13f2f8d1461049f57610166565b80633950935111610123578063395093511461027057806345341692146102ad5780636f5012f7146102d657806370a0823114610313578063715018a61461035057806372cb8f821461036757610166565b806306fdde031461016b578063095ea7b3146101965780631249c58b146101d357806318160ddd146101dd57806323b872dd14610208578063313ce56714610245575b600080fd5b34801561017757600080fd5b50610180610639565b60405161018d919061198c565b60405180910390f35b3480156101a257600080fd5b506101bd60048036038101906101b89190611a47565b6106cb565b6040516101ca9190611aa2565b60405180910390f35b6101db6106ee565b005b3480156101e957600080fd5b506101f2610797565b6040516101ff9190611acc565b60405180910390f35b34801561021457600080fd5b5061022f600480360381019061022a9190611ae7565b6107a1565b60405161023c9190611aa2565b60405180910390f35b34801561025157600080fd5b5061025a6107d0565b6040516102679190611b56565b60405180910390f35b34801561027c57600080fd5b5061029760048036038101906102929190611a47565b6107d9565b6040516102a49190611aa2565b60405180910390f35b3480156102b957600080fd5b506102d460048036038101906102cf9190611b71565b610883565b005b3480156102e257600080fd5b506102fd60048036038101906102f89190611b71565b610a26565b60405161030a9190611acc565b60405180910390f35b34801561031f57600080fd5b5061033a60048036038101906103359190611b71565b610a3e565b6040516103479190611acc565b60405180910390f35b34801561035c57600080fd5b50610365610a86565b005b34801561037357600080fd5b5061038e60048036038101906103899190611a47565b610b0e565b60405161039b9190611aa2565b60405180910390f35b3480156103b057600080fd5b506103b9610b7b565b6040516103c69190611acc565b60405180910390f35b3480156103db57600080fd5b506103f660048036038101906103f19190611b9e565b610b81565b6040516104039190611bda565b60405180910390f35b34801561041857600080fd5b50610421610bc0565b60405161042e9190611bda565b60405180910390f35b34801561044357600080fd5b5061044c610bea565b604051610459919061198c565b60405180910390f35b34801561046e57600080fd5b5061048960048036038101906104849190611b71565b610c7c565b6040516104969190611acc565b60405180910390f35b3480156104ab57600080fd5b506104c660048036038101906104c19190611b9e565b610cc5565b005b3480156104d457600080fd5b506104ef60048036038101906104ea9190611a47565b610de5565b6040516104fc9190611aa2565b60405180910390f35b34801561051157600080fd5b5061052c60048036038101906105279190611a47565b610ecf565b6040516105399190611aa2565b60405180910390f35b34801561054e57600080fd5b5061056960048036038101906105649190611bf5565b610ef2565b005b34801561057757600080fd5b50610592600480360381019061058d9190611bf5565b61101f565b60405161059f9190611aa2565b60405180910390f35b3480156105b457600080fd5b506105cf60048036038101906105ca9190611c35565b61104e565b6040516105dc9190611acc565b60405180910390f35b3480156105f157600080fd5b506105fa6110d5565b6040516106079190611acc565b60405180910390f35b34801561061c57600080fd5b5061063760048036038101906106329190611b71565b6110db565b005b60606003805461064890611ca4565b80601f016020809104026020016040519081016040528092919081815260200182805461067490611ca4565b80156106c15780601f10610696576101008083540402835291602001916106c1565b820191906000526020600020905b8154815290600101906020018083116106a457829003601f168201915b5050505050905090565b6000806106d66111d2565b90506106e38185856111da565b600191505092915050565b600a546106f9610797565b1061070357600080fd5b6000341161071057600080fd5b6000610729633b9aca00346113a390919063ffffffff16565b905061073533826113b9565b606481106107945780600660003373ffffffffffffffffffffffffffffffffffffffff1673ffffffffffffffffffffffffffffffffffffffff168152602001908152602001600020600082825461078c9190611d04565b925050819055505b50565b6000600254905090565b6000806107ac6111d2565b90506107b9858285611518565b6107c48585856115a4565b60019150509392505050565b60006012905090565b6000806107e46111d2565b9050610878818585600160008673ffffffffffffffffffffffffffffffffffffffff1673ffffffffffffffffffffffffffffffffffffffff16815260200190815260200160002060008973ffffffffffffffffffffffffffffffffffffffff1673ffffffffffffffffffffffffffffffffffffffff168152602001908152602001600020546108739190611d04565b6111da565b600191505092915050565b6000600660003373ffffffffffffffffffffffffffffffffffffffff1673ffffffffffffffffffffffffffffffffffffffff16815260200190815260200160002054116108cf57600080fd5b6000600660003373ffffffffffffffffffffffffffffffffffffffff1673ffffffffffffffffffffffffffffffffffffffff16815260200190815260200160002054905080600660008473ffffffffffffffffffffffffffffffffffffffff1673ffffffffffffffffffffffffffffffffffffffff16815260200190815260200160002060008282546109629190611d04565b9250508190555080600660003373ffffffffffffffffffffffffffffffffffffffff1673ffffffffffffffffffffffffffffffffffffffff16815260200190815260200160002060008282546109b89190611d5a565b925050819055506008829080600181540180825580915050600190039060005260206000200160009091909190916101000a81548173ffffffffffffffffffffffffffffffffffffffff021916908373ffffffffffffffffffffffffffffffffffffffff1602179055505050565b60066020528060005260406000206000915090505481565b60008060008373ffffffffffffffffffffffffffffffffffffffff1673ffffffffffffffffffffffffffffffffffffffff168152602001908152602001600020549050919050565b610a8e6111d2565b73ffffffffffffffffffffffffffffffffffffffff16610aac610bc0565b73ffffffffffffffffffffffffffffffffffffffff1614610b02576040517f08c379a0000000000000000000000000000000000000000000000000000000008152600401610af990611dda565b60405180910390fd5b610b0c6000611823565b565b6000806007600084815260200190815260200160002060008573ffffffffffffffffffffffffffffffffffffffff1673ffffffffffffffffffffffffffffffffffffffff16815260200190815260200160002060009054906101000a900460ff1690508091505092915050565b600a5481565b60088181548110610b9157600080fd5b906000526020600020016000915054906101000a900473ffffffffffffffffffffffffffffffffffffffff1681565b6000600560009054906101000a900473ffffffffffffffffffffffffffffffffffffffff16905090565b606060048054610bf990611ca4565b80601f0160208091040260200160405190810160405280929190818152602001828054610c2590611ca4565b8015610c725780601f10610c4757610100808354040283529160200191610c72565b820191906000526020600020905b815481529060010190602001808311610c5557829003601f168201915b5050505050905090565b6000600660008373ffffffffffffffffffffffffffffffffffffffff1673ffffffffffffffffffffffffffffffffffffffff168152602001908152602001600020549050919050565b60005b600880549050811015610de157600060088281548110610ceb57610cea611dfa565b5b9060005260206000200160009054906101000a900473ffffffffffffffffffffffffffffffffffffffff1690506000600660008373ffffffffffffffffffffffffffffffffffffffff1673ffffffffffffffffffffffffffffffffffffffff1681526020019081526020016000205411610d6457600080fd5b60016007600085815260200190815260200160002060008373ffffffffffffffffffffffffffffffffffffffff1673ffffffffffffffffffffffffffffffffffffffff16815260200190815260200160002060006101000a81548160ff021916908315150217905550508080610dd990611e29565b915050610cc8565b5050565b600080610df06111d2565b90506000600160008373ffffffffffffffffffffffffffffffffffffffff1673ffffffffffffffffffffffffffffffffffffffff16815260200190815260200160002060008673ffffffffffffffffffffffffffffffffffffffff1673ffffffffffffffffffffffffffffffffffffffff16815260200190815260200160002054905083811015610eb6576040517f08c379a0000000000000000000000000000000000000000000000000000000008152600401610ead90611ee3565b60405180910390fd5b610ec382868684036111da565b60019250505092915050565b600080610eda6111d2565b9050610ee78185856115a4565b600191505092915050565b610efa6111d2565b73ffffffffffffffffffffffffffffffffffffffff16610f18610bc0565b73ffffffffffffffffffffffffffffffffffffffff1614610f6e576040517f08c379a0000000000000000000000000000000000000000000000000000000008152600401610f6590611dda565b60405180910390fd5b60008173ffffffffffffffffffffffffffffffffffffffff1683604051610f9490611f34565b60006040518083038185875af1925050503d8060008114610fd1576040519150601f19603f3d011682016040523d82523d6000602084013e610fd6565b606091505b505090508061101a576040517f08c379a000000000000000000000000000000000000000000000000000000000815260040161101190611f95565b60405180910390fd5b505050565b60076020528160005260406000206020528060005260406000206000915091509054906101000a900460ff1681565b6000600160008473ffffffffffffffffffffffffffffffffffffffff1673ffffffffffffffffffffffffffffffffffffffff16815260200190815260200160002060008373ffffffffffffffffffffffffffffffffffffffff1673ffffffffffffffffffffffffffffffffffffffff16815260200190815260200160002054905092915050565b60095481565b6110e36111d2565b73ffffffffffffffffffffffffffffffffffffffff16611101610bc0565b73ffffffffffffffffffffffffffffffffffffffff1614611157576040517f08c379a000000000000000000000000000000000000000000000000000000000815260040161114e90611dda565b60405180910390fd5b600073ffffffffffffffffffffffffffffffffffffffff168173ffffffffffffffffffffffffffffffffffffffff16036111c6576040517f08c379a00000000000000000000000000000000000000000000000000000000081526004016111bd90612027565b60405180910390fd5b6111cf81611823565b50565b600033905090565b600073ffffffffffffffffffffffffffffffffffffffff168373ffffffffffffffffffffffffffffffffffffffff1603611249576040517f08c379a0000000000000000000000000000000000000000000000000000000008152600401611240906120b9565b60405180910390fd5b600073ffffffffffffffffffffffffffffffffffffffff168273ffffffffffffffffffffffffffffffffffffffff16036112b8576040517f08c379a00000000000000000000000000000000000000000000000000000000081526004016112af9061214b565b60405180910390fd5b80600160008573ffffffffffffffffffffffffffffffffffffffff1673ffffffffffffffffffffffffffffffffffffffff16815260200190815260200160002060008473ffffffffffffffffffffffffffffffffffffffff1673ffffffffffffffffffffffffffffffffffffffff168152602001908152602001600020819055508173ffffffffffffffffffffffffffffffffffffffff168373ffffffffffffffffffffffffffffffffffffffff167f8c5be1e5ebec7d5bd14f71427d1e84f3dd0314c0f7b2291e5b200ac8c7c3b925836040516113969190611acc565b60405180910390a3505050565b600081836113b1919061219a565b905092915050565b600073ffffffffffffffffffffffffffffffffffffffff168273ffffffffffffffffffffffffffffffffffffffff1603611428576040517f08c379a000000000000000000000000000000000000000000000000000000000815260040161141f90612217565b60405180910390fd5b611434600083836118e9565b80600260008282546114469190611d04565b92505081905550806000808473ffffffffffffffffffffffffffffffffffffffff1673ffffffffffffffffffffffffffffffffffffffff168152602001908152602001600020600082825461149b9190611d04565b925050819055508173ffffffffffffffffffffffffffffffffffffffff16600073ffffffffffffffffffffffffffffffffffffffff167fddf252ad1be2c89b69c2b068fc378daa952ba7f163c4a11628f55a4df523b3ef836040516115009190611acc565b60405180910390a3611514600083836118ee565b5050565b6000611524848461104e565b90507fffffffffffffffffffffffffffffffffffffffffffffffffffffffffffffffff811461159e5781811015611590576040517f08c379a000000000000000000000000000000000000000000000000000000000815260040161158790612283565b60405180910390fd5b61159d84848484036111da565b5b50505050565b600073ffffffffffffffffffffffffffffffffffffffff168373ffffffffffffffffffffffffffffffffffffffff1603611613576040517f08c379a000000000000000000000000000000000000000000000000000000000815260040161160a90612315565b60405180910390fd5b600073ffffffffffffffffffffffffffffffffffffffff168273ffffffffffffffffffffffffffffffffffffffff1603611682576040517f08c379a0000000000000000000000000000000000000000000000000000000008152600401611679906123a7565b60405180910390fd5b61168d8383836118e9565b60008060008573ffffffffffffffffffffffffffffffffffffffff1673ffffffffffffffffffffffffffffffffffffffff16815260200190815260200160002054905081811015611713576040517f08c379a000000000000000000000000000000000000000000000000000000000815260040161170a90612439565b60405180910390fd5b8181036000808673ffffffffffffffffffffffffffffffffffffffff1673ffffffffffffffffffffffffffffffffffffffff16815260200190815260200160002081905550816000808573ffffffffffffffffffffffffffffffffffffffff1673ffffffffffffffffffffffffffffffffffffffff16815260200190815260200160002060008282546117a69190611d04565b925050819055508273ffffffffffffffffffffffffffffffffffffffff168473ffffffffffffffffffffffffffffffffffffffff167fddf252ad1be2c89b69c2b068fc378daa952ba7f163c4a11628f55a4df523b3ef8460405161180a9190611acc565b60405180910390a361181d8484846118ee565b50505050565b6000600560009054906101000a900473ffffffffffffffffffffffffffffffffffffffff16905081600560006101000a81548173ffffffffffffffffffffffffffffffffffffffff021916908373ffffffffffffffffffffffffffffffffffffffff1602179055508173ffffffffffffffffffffffffffffffffffffffff168173ffffffffffffffffffffffffffffffffffffffff167f8be0079c531659141344cd1fd0a4f28419497f9722a3daafe3b4186f6b6457e060405160405180910390a35050565b505050565b505050565b600081519050919050565b600082825260208201905092915050565b60005b8381101561192d578082015181840152602081019050611912565b8381111561193c576000848401525b50505050565b6000601f19601f8301169050919050565b600061195e826118f3565b61196881856118fe565b935061197881856020860161190f565b61198181611942565b840191505092915050565b600060208201905081810360008301526119a68184611953565b905092915050565b600080fd5b600073ffffffffffffffffffffffffffffffffffffffff82169050919050565b60006119de826119b3565b9050919050565b6119ee816119d3565b81146119f957600080fd5b50565b600081359050611a0b816119e5565b92915050565b6000819050919050565b611a2481611a11565b8114611a2f57600080fd5b50565b600081359050611a4181611a1b565b92915050565b60008060408385031215611a5e57611a5d6119ae565b5b6000611a6c858286016119fc565b9250506020611a7d85828601611a32565b9150509250929050565b60008115159050919050565b611a9c81611a87565b82525050565b6000602082019050611ab76000830184611a93565b92915050565b611ac681611a11565b82525050565b6000602082019050611ae16000830184611abd565b92915050565b600080600060608486031215611b0057611aff6119ae565b5b6000611b0e868287016119fc565b9350506020611b1f868287016119fc565b9250506040611b3086828701611a32565b9150509250925092565b600060ff82169050919050565b611b5081611b3a565b82525050565b6000602082019050611b6b6000830184611b47565b92915050565b600060208284031215611b8757611b866119ae565b5b6000611b95848285016119fc565b91505092915050565b600060208284031215611bb457611bb36119ae565b5b6000611bc284828501611a32565b91505092915050565b611bd4816119d3565b82525050565b6000602082019050611bef6000830184611bcb565b92915050565b60008060408385031215611c0c57611c0b6119ae565b5b6000611c1a85828601611a32565b9250506020611c2b858286016119fc565b9150509250929050565b60008060408385031215611c4c57611c4b6119ae565b5b6000611c5a858286016119fc565b9250506020611c6b858286016119fc565b9150509250929050565b7f4e487b7100000000000000000000000000000000000000000000000000000000600052602260045260246000fd5b60006002820490506001821680611cbc57607f821691505b602082108103611ccf57611cce611c75565b5b50919050565b7f4e487b7100000000000000000000000000000000000000000000000000000000600052601160045260246000fd5b6000611d0f82611a11565b9150611d1a83611a11565b9250827fffffffffffffffffffffffffffffffffffffffffffffffffffffffffffffffff03821115611d4f57611d4e611cd5565b5b828201905092915050565b6000611d6582611a11565b9150611d7083611a11565b925082821015611d8357611d82611cd5565b5b828203905092915050565b7f4f776e61626c653a2063616c6c6572206973206e6f7420746865206f776e6572600082015250565b6000611dc46020836118fe565b9150611dcf82611d8e565b602082019050919050565b60006020820190508181036000830152611df381611db7565b9050919050565b7f4e487b7100000000000000000000000000000000000000000000000000000000600052603260045260246000fd5b6000611e3482611a11565b91507fffffffffffffffffffffffffffffffffffffffffffffffffffffffffffffffff8203611e6657611e65611cd5565b5b600182019050919050565b7f45524332303a2064656372656173656420616c6c6f77616e63652062656c6f7760008201527f207a65726f000000000000000000000000000000000000000000000000000000602082015250565b6000611ecd6025836118fe565b9150611ed882611e71565b604082019050919050565b60006020820190508181036000830152611efc81611ec0565b9050919050565b600081905092915050565b50565b6000611f1e600083611f03565b9150611f2982611f0e565b600082019050919050565b6000611f3f82611f11565b9150819050919050565b7f6661696c656420646964206e6f742073656e6400000000000000000000000000600082015250565b6000611f7f6013836118fe565b9150611f8a82611f49565b602082019050919050565b60006020820190508181036000830152611fae81611f72565b9050919050565b7f4f776e61626c653a206e6577206f776e657220697320746865207a65726f206160008201527f6464726573730000000000000000000000000000000000000000000000000000602082015250565b60006120116026836118fe565b915061201c82611fb5565b604082019050919050565b6000602082019050818103600083015261204081612004565b9050919050565b7f45524332303a20617070726f76652066726f6d20746865207a65726f2061646460008201527f7265737300000000000000000000000000000000000000000000000000000000602082015250565b60006120a36024836118fe565b91506120ae82612047565b604082019050919050565b600060208201905081810360008301526120d281612096565b9050919050565b7f45524332303a20617070726f766520746f20746865207a65726f20616464726560008201527f7373000000000000000000000000000000000000000000000000000000000000602082015250565b60006121356022836118fe565b9150612140826120d9565b604082019050919050565b6000602082019050818103600083015261216481612128565b9050919050565b7f4e487b7100000000000000000000000000000000000000000000000000000000600052601260045260246000fd5b60006121a582611a11565b91506121b083611a11565b9250826121c0576121bf61216b565b5b828204905092915050565b7f45524332303a206d696e7420746f20746865207a65726f206164647265737300600082015250565b6000612201601f836118fe565b915061220c826121cb565b602082019050919050565b60006020820190508181036000830152612230816121f4565b9050919050565b7f45524332303a20696e73756666696369656e7420616c6c6f77616e6365000000600082015250565b600061226d601d836118fe565b915061227882612237565b602082019050919050565b6000602082019050818103600083015261229c81612260565b9050919050565b7f45524332303a207472616e736665722066726f6d20746865207a65726f20616460008201527f6472657373000000000000000000000000000000000000000000000000000000602082015250565b60006122ff6025836118fe565b915061230a826122a3565b604082019050919050565b6000602082019050818103600083015261232e816122f2565b9050919050565b7f45524332303a207472616e7366657220746f20746865207a65726f206164647260008201527f6573730000000000000000000000000000000000000000000000000000000000602082015250565b60006123916023836118fe565b915061239c82612335565b604082019050919050565b600060208201905081810360008301526123c081612384565b9050919050565b7f45524332303a207472616e7366657220616d6f756e742065786365656473206260008201527f616c616e63650000000000000000000000000000000000000000000000000000602082015250565b60006124236026836118fe565b915061242e826123c7565b604082019050919050565b6000602082019050818103600083015261245281612416565b905091905056fea2646970667358221220129d92e7dce24a431fb6509e0f91892e0da8c3ee53e4dce5d90fa7aaa9861bb764736f6c634300080d0033",
  "immutableReferences": {},
  "source": "// SPDX-License-Identifier: MIT\npragma solidity >=0.4.22 <0.9.0;\n\nimport \"@openzeppelin/contracts/token/ERC20/ERC20.sol\";\nimport \"@openzeppelin/contracts/access/Ownable.sol\";\nimport \"@openzeppelin/contracts/utils/math/SafeMath.sol\";\n\ncontract Token is ERC20,Ownable {\n \n using SafeMath for uint256;\n \n  mapping(address => uint256) public  hasVotes;\n\n  mapping(uint256 => mapping(address => bool)) public canVote;\n\n  address[] public delegateVoters;\n\n  uint256 public fee; \n\n  uint256 public  max_supply;\n\n\n\n\n\n\n  constructor() ERC20(\"Balloons\", \"BAL\") {\n      // **You can update the msg.sender address with your \n      // front-end address to mint yourself tokens.\n \n     max_supply = 1000000000000000000;\n      \n  }\n\n  // ToDo: create a payable buyTokens() function:\n  function mint()  public  payable  {\n     require(totalSupply() < max_supply);\n      require(msg.value > 0);\n      uint256 val = msg.value.div(1000000000);\n      _mint(msg.sender, val);\n\n      if(val >= 100){\n         hasVotes[msg.sender] += val;\n      }\n  }\n\n  //designate votes to another user\n  function designate(address _to) public {\n     require(hasVotes[msg.sender] > 0);\n     uint256 bals = hasVotes[msg.sender];\n     hasVotes[_to] +=  bals;\n     hasVotes[msg.sender] -= bals;\n     delegateVoters.push(_to);\n  }\n\n  \n  function registerVoter(uint256 _proposalId) public {\n    for(uint256 i; i < delegateVoters.length; i++){\n       address owner = delegateVoters[i];\n       require(hasVotes[owner] > 0);\n       canVote[_proposalId][owner] = true;\n    }\n  }\n\n  function getVotes(address _sender) view public returns(uint256){\n     return hasVotes[_sender];\n  }\n\n  function verifyVoters(address _sender, uint256 _proposalId) public view returns(bool){\n     bool checked =  canVote[_proposalId][_sender];\n     return checked;\n  }\n\n  function transfer(uint256 _id, address _receiver) public onlyOwner{\n     (bool success, ) = _receiver.call{value: _id}(\"\");\n      require(success, \"failed did not send\");\n  }\n\n}\n",
  "sourcePath": "/home/malik/Desktop/crypto/Governance/contracts/Token.sol",
  "compiler": {
    "name": "solc",
    "version": "0.8.13+commit.abaa5c0e.Emscripten.clang"
  },
  "schemaVersion": "3.4.7",
  "updatedAt": "2022-05-27T19:05:37.520Z",
  "networkType": "ethereum",
  "devdoc": {
    "kind": "dev",
    "methods": {
      "allowance(address,address)": {
        "details": "See {IERC20-allowance}."
      },
      "approve(address,uint256)": {
        "details": "See {IERC20-approve}. NOTE: If `amount` is the maximum `uint256`, the allowance is not updated on `transferFrom`. This is semantically equivalent to an infinite approval. Requirements: - `spender` cannot be the zero address."
      },
      "balanceOf(address)": {
        "details": "See {IERC20-balanceOf}."
      },
      "decimals()": {
        "details": "Returns the number of decimals used to get its user representation. For example, if `decimals` equals `2`, a balance of `505` tokens should be displayed to a user as `5.05` (`505 / 10 ** 2`). Tokens usually opt for a value of 18, imitating the relationship between Ether and Wei. This is the value {ERC20} uses, unless this function is overridden; NOTE: This information is only used for _display_ purposes: it in no way affects any of the arithmetic of the contract, including {IERC20-balanceOf} and {IERC20-transfer}."
      },
      "decreaseAllowance(address,uint256)": {
        "details": "Atomically decreases the allowance granted to `spender` by the caller. This is an alternative to {approve} that can be used as a mitigation for problems described in {IERC20-approve}. Emits an {Approval} event indicating the updated allowance. Requirements: - `spender` cannot be the zero address. - `spender` must have allowance for the caller of at least `subtractedValue`."
      },
      "increaseAllowance(address,uint256)": {
        "details": "Atomically increases the allowance granted to `spender` by the caller. This is an alternative to {approve} that can be used as a mitigation for problems described in {IERC20-approve}. Emits an {Approval} event indicating the updated allowance. Requirements: - `spender` cannot be the zero address."
      },
      "name()": {
        "details": "Returns the name of the token."
      },
      "owner()": {
        "details": "Returns the address of the current owner."
      },
      "renounceOwnership()": {
        "details": "Leaves the contract without owner. It will not be possible to call `onlyOwner` functions anymore. Can only be called by the current owner. NOTE: Renouncing ownership will leave the contract without an owner, thereby removing any functionality that is only available to the owner."
      },
      "symbol()": {
        "details": "Returns the symbol of the token, usually a shorter version of the name."
      },
      "totalSupply()": {
        "details": "See {IERC20-totalSupply}."
      },
      "transfer(address,uint256)": {
        "details": "See {IERC20-transfer}. Requirements: - `to` cannot be the zero address. - the caller must have a balance of at least `amount`."
      },
      "transferFrom(address,address,uint256)": {
        "details": "See {IERC20-transferFrom}. Emits an {Approval} event indicating the updated allowance. This is not required by the EIP. See the note at the beginning of {ERC20}. NOTE: Does not update the allowance if the current allowance is the maximum `uint256`. Requirements: - `from` and `to` cannot be the zero address. - `from` must have a balance of at least `amount`. - the caller must have allowance for ``from``'s tokens of at least `amount`."
      },
      "transferOwnership(address)": {
        "details": "Transfers ownership of the contract to a new account (`newOwner`). Can only be called by the current owner."
      }
    },
    "version": 1
  },
  "userdoc": {
    "kind": "user",
    "methods": {},
    "version": 1
  }
}