{
  "contractName": "educatorDao",
  "abi": [
    {
      "inputs": [
        {
          "internalType": "address",
          "name": "_token",
          "type": "address"
        }
      ],
      "stateMutability": "nonpayable",
      "type": "constructor"
    },
    {
      "inputs": [],
      "name": "deadline",
      "outputs": [
        {
          "internalType": "uint256",
          "name": "",
          "type": "uint256"
        }
      ],
      "stateMutability": "view",
      "type": "function"
    },
    {
      "inputs": [],
      "name": "proposalIds",
      "outputs": [
        {
          "internalType": "uint256",
          "name": "",
          "type": "uint256"
        }
      ],
      "stateMutability": "view",
      "type": "function"
    },
    {
      "inputs": [
        {
          "internalType": "uint256",
          "name": "",
          "type": "uint256"
        }
      ],
      "name": "proposals",
      "outputs": [
        {
          "internalType": "string",
          "name": "message",
          "type": "string"
        },
        {
          "internalType": "uint256",
          "name": "proposalId",
          "type": "uint256"
        },
        {
          "internalType": "uint256",
          "name": "votesFor",
          "type": "uint256"
        },
        {
          "internalType": "uint256",
          "name": "votesAgainst",
          "type": "uint256"
        },
        {
          "internalType": "bool",
          "name": "passed",
          "type": "bool"
        },
        {
          "internalType": "uint256",
          "name": "startingTime",
          "type": "uint256"
        },
        {
          "internalType": "uint256",
          "name": "endingTime",
          "type": "uint256"
        },
        {
          "internalType": "bool",
          "name": "locked",
          "type": "bool"
        },
        {
          "internalType": "address",
          "name": "sender",
          "type": "address"
        },
        {
          "internalType": "address",
          "name": "_receiver",
          "type": "address"
        },
        {
          "internalType": "uint256",
          "name": "target",
          "type": "uint256"
        },
        {
          "internalType": "bool",
          "name": "isActive",
          "type": "bool"
        }
      ],
      "stateMutability": "view",
      "type": "function"
    },
    {
      "inputs": [],
      "name": "users",
      "outputs": [
        {
          "internalType": "uint256",
          "name": "",
          "type": "uint256"
        }
      ],
      "stateMutability": "view",
      "type": "function"
    },
    {
      "inputs": [
        {
          "internalType": "string",
          "name": "_message",
          "type": "string"
        },
        {
          "internalType": "address",
          "name": "_receiver",
          "type": "address"
        },
        {
          "internalType": "uint256",
          "name": "_target",
          "type": "uint256"
        }
      ],
      "name": "addProposal",
      "outputs": [],
      "stateMutability": "nonpayable",
      "type": "function"
    },
    {
      "inputs": [
        {
          "internalType": "uint256",
          "name": "_proposalId",
          "type": "uint256"
        }
      ],
      "name": "voteFor",
      "outputs": [],
      "stateMutability": "nonpayable",
      "type": "function"
    },
    {
      "inputs": [
        {
          "internalType": "uint256",
          "name": "_proposalId",
          "type": "uint256"
        }
      ],
      "name": "VoteAgainst",
      "outputs": [],
      "stateMutability": "nonpayable",
      "type": "function"
    },
    {
      "inputs": [
        {
          "internalType": "uint256",
          "name": "_proposalId",
          "type": "uint256"
        }
      ],
      "name": "executeProposal",
      "outputs": [
        {
          "internalType": "string",
          "name": "",
          "type": "string"
        }
      ],
      "stateMutability": "nonpayable",
      "type": "function"
    },
    {
      "inputs": [
        {
          "internalType": "uint256",
          "name": "_proposalId",
          "type": "uint256"
        }
      ],
      "name": "cancelProposal",
      "outputs": [],
      "stateMutability": "nonpayable",
      "type": "function"
    },
    {
      "inputs": [
        {
          "internalType": "uint256",
          "name": "_proposalId",
          "type": "uint256"
        }
      ],
      "name": "timeLeft",
      "outputs": [
        {
          "internalType": "uint256",
          "name": "",
          "type": "uint256"
        }
      ],
      "stateMutability": "view",
      "type": "function"
    }
  ],
  "bytecode": "0x6080604052601e42620000139190620000c9565b6005553480156200002357600080fd5b5060405162001ddb38038062001ddb833981810160405281019062000049919062000190565b806000806101000a81548173ffffffffffffffffffffffffffffffffffffffff021916908373ffffffffffffffffffffffffffffffffffffffff16021790555050620001c2565b6000819050919050565b7f4e487b7100000000000000000000000000000000000000000000000000000000600052601160045260246000fd5b6000620000d68262000090565b9150620000e38362000090565b9250827fffffffffffffffffffffffffffffffffffffffffffffffffffffffffffffffff038211156200011b576200011a6200009a565b5b828201905092915050565b600080fd5b600073ffffffffffffffffffffffffffffffffffffffff82169050919050565b600062000158826200012b565b9050919050565b6200016a816200014b565b81146200017657600080fd5b50565b6000815190506200018a816200015f565b92915050565b600060208284031215620001a957620001a862000126565b5b6000620001b98482850162000179565b91505092915050565b611c0980620001d26000396000f3fe608060405234801561001057600080fd5b506004361061009e5760003560e01c806347cb7a681161006657806347cb7a6814610166578063568881a31461019657806386a50535146101b2578063e0a8f6f5146101ce578063f2020275146101ea5761009e565b8063013cf08b146100a35780630d61b519146100de5780631875c3f11461010e57806329dcb0cf1461012a5780633d5af2ed14610148575b600080fd5b6100bd60048036038101906100b89190611464565b610208565b6040516100d59c9b9a99989796959493929190611595565b60405180910390f35b6100f860048036038101906100f39190611464565b610367565b6040516101059190611656565b60405180910390f35b61012860048036038101906101239190611464565b610680565b005b610132610a4f565b60405161013f9190611678565b60405180910390f35b610150610a55565b60405161015d9190611678565b60405180910390f35b610180600480360381019061017b9190611464565b610a5b565b60405161018d9190611678565b60405180910390f35b6101b060048036038101906101ab91906117f4565b610acc565b005b6101cc60048036038101906101c79190611464565b610d9f565b005b6101e860048036038101906101e39190611464565b61116e565b005b6101f2611371565b6040516101ff9190611678565b60405180910390f35b6006818154811061021857600080fd5b90600052602060002090600b020160009150905080600001805461023b90611892565b80601f016020809104026020016040519081016040528092919081815260200182805461026790611892565b80156102b45780601f10610289576101008083540402835291602001916102b4565b820191906000526020600020905b81548152906001019060200180831161029757829003601f168201915b5050505050908060010154908060020154908060030154908060040160009054906101000a900460ff16908060050154908060060154908060070160009054906101000a900460ff16908060070160019054906101000a900473ffffffffffffffffffffffffffffffffffffffff16908060080160009054906101000a900473ffffffffffffffffffffffffffffffffffffffff169080600901549080600a0160009054906101000a900460ff1690508c565b6060816000151560068281548110610382576103816118c3565b5b90600052602060002090600b020160040160009054906101000a900460ff161515146103ad57600080fd5b60006103b884610a5b565b146103c257600080fd5b3373ffffffffffffffffffffffffffffffffffffffff16600684815481106103ed576103ec6118c3565b5b90600052602060002090600b020160070160019054906101000a900473ffffffffffffffffffffffffffffffffffffffff1673ffffffffffffffffffffffffffffffffffffffff161461043f57600080fd5b60068381548110610453576104526118c3565b5b90600052602060002090600b02016003015460068481548110610479576104786118c3565b5b90600052602060002090600b0201600201541115610603576001600684815481106104a7576104a66118c3565b5b90600052602060002090600b020160040160006101000a81548160ff02191690831515021790555060008054906101000a900473ffffffffffffffffffffffffffffffffffffffff1673ffffffffffffffffffffffffffffffffffffffff1663b7760c8f6006858154811061051f5761051e6118c3565b5b90600052602060002090600b02016009015460068681548110610545576105446118c3565b5b90600052602060002090600b020160080160009054906101000a900473ffffffffffffffffffffffffffffffffffffffff166040518363ffffffff1660e01b81526004016105949291906118f2565b600060405180830381600087803b1580156105ae57600080fd5b505af11580156105c2573d6000803e3d6000fd5b505050506040518060400160405280600781526020017f7375636365737300000000000000000000000000000000000000000000000000815250915061067a565b600060068481548110610619576106186118c3565b5b90600052602060002090600b0201600a0160006101000a81548160ff0219169083151502179055506040518060400160405280600481526020017f6661696c0000000000000000000000000000000000000000000000000000000081525091505b50919050565b806000151560068281548110610699576106986118c3565b5b90600052602060002090600b020160040160009054906101000a900460ff161515146106c457600080fd5b6001151560008054906101000a900473ffffffffffffffffffffffffffffffffffffffff1673ffffffffffffffffffffffffffffffffffffffff166372cb8f8233856040518363ffffffff1660e01b815260040161072392919061191b565b602060405180830381865afa158015610740573d6000803e3d6000fd5b505050506040513d601f19601f820116820180604052508101906107649190611970565b15151461077057600080fd5b600061077b83610a5b565b1161078557600080fd5b600015156002600084815260200190815260200160002060003373ffffffffffffffffffffffffffffffffffffffff1673ffffffffffffffffffffffffffffffffffffffff16815260200190815260200160002060009054906101000a900460ff16151514610829576040517f08c379a0000000000000000000000000000000000000000000000000000000008152600401610820906119e9565b60405180910390fd5b60008060009054906101000a900473ffffffffffffffffffffffffffffffffffffffff1673ffffffffffffffffffffffffffffffffffffffff16639ab24eb0336040518263ffffffff1660e01b81526004016108859190611a09565b602060405180830381865afa1580156108a2573d6000803e3d6000fd5b505050506040513d601f19601f820116820180604052508101906108c69190611a39565b11610906576040517f08c379a00000000000000000000000000000000000000000000000000000000081526004016108fd90611ab2565b60405180910390fd5b60008060009054906101000a900473ffffffffffffffffffffffffffffffffffffffff1673ffffffffffffffffffffffffffffffffffffffff16639ab24eb0336040518263ffffffff1660e01b81526004016109629190611a09565b602060405180830381865afa15801561097f573d6000803e3d6000fd5b505050506040513d601f19601f820116820180604052508101906109a39190611a39565b905080600684815481106109ba576109b96118c3565b5b90600052602060002090600b020160020160008282546109da9190611b01565b9250508190555060016002600085815260200190815260200160002060003373ffffffffffffffffffffffffffffffffffffffff1673ffffffffffffffffffffffffffffffffffffffff16815260200190815260200160002060006101000a81548160ff021916908315150217905550505050565b60055481565b60045481565b600060068281548110610a7157610a706118c3565b5b90600052602060002090600b020160060154421115610a935760009050610ac7565b4260068381548110610aa857610aa76118c3565b5b90600052602060002090600b020160060154610ac49190611b57565b90505b919050565b60046000815480929190610adf90611b8b565b919050555060066040518061018001604052808581526020016001600454610b079190611b57565b815260200160008152602001600081526020016000151581526020014281526020016203f48042610b389190611b01565b81526020016000151581526020013373ffffffffffffffffffffffffffffffffffffffff1681526020018473ffffffffffffffffffffffffffffffffffffffff1681526020018381526020016001151581525090806001815401808255809150506001900390600052602060002090600b02016000909190919091506000820151816000019080519060200190610bd0929190611377565b5060208201518160010155604082015181600201556060820151816003015560808201518160040160006101000a81548160ff02191690831515021790555060a0820151816005015560c0820151816006015560e08201518160070160006101000a81548160ff0219169083151502179055506101008201518160070160016101000a81548173ffffffffffffffffffffffffffffffffffffffff021916908373ffffffffffffffffffffffffffffffffffffffff1602179055506101208201518160080160006101000a81548173ffffffffffffffffffffffffffffffffffffffff021916908373ffffffffffffffffffffffffffffffffffffffff160217905550610140820151816009015561016082015181600a0160006101000a81548160ff021916908315150217905550505060008054906101000a900473ffffffffffffffffffffffffffffffffffffffff1673ffffffffffffffffffffffffffffffffffffffff1663a13f2f8d6001600454610d4c9190611b57565b6040518263ffffffff1660e01b8152600401610d689190611678565b600060405180830381600087803b158015610d8257600080fd5b505af1158015610d96573d6000803e3d6000fd5b50505050505050565b806000151560068281548110610db857610db76118c3565b5b90600052602060002090600b020160040160009054906101000a900460ff16151514610de357600080fd5b6001151560008054906101000a900473ffffffffffffffffffffffffffffffffffffffff1673ffffffffffffffffffffffffffffffffffffffff166372cb8f8233856040518363ffffffff1660e01b8152600401610e4292919061191b565b602060405180830381865afa158015610e5f573d6000803e3d6000fd5b505050506040513d601f19601f82011682018060405250810190610e839190611970565b151514610e8f57600080fd5b6000610e9a83610a5b565b11610ea457600080fd5b600015156002600084815260200190815260200160002060003373ffffffffffffffffffffffffffffffffffffffff1673ffffffffffffffffffffffffffffffffffffffff16815260200190815260200160002060009054906101000a900460ff16151514610f48576040517f08c379a0000000000000000000000000000000000000000000000000000000008152600401610f3f906119e9565b60405180910390fd5b60008060009054906101000a900473ffffffffffffffffffffffffffffffffffffffff1673ffffffffffffffffffffffffffffffffffffffff16639ab24eb0336040518263ffffffff1660e01b8152600401610fa49190611a09565b602060405180830381865afa158015610fc1573d6000803e3d6000fd5b505050506040513d601f19601f82011682018060405250810190610fe59190611a39565b11611025576040517f08c379a000000000000000000000000000000000000000000000000000000000815260040161101c90611ab2565b60405180910390fd5b60008060009054906101000a900473ffffffffffffffffffffffffffffffffffffffff1673ffffffffffffffffffffffffffffffffffffffff16639ab24eb0336040518263ffffffff1660e01b81526004016110819190611a09565b602060405180830381865afa15801561109e573d6000803e3d6000fd5b505050506040513d601f19601f820116820180604052508101906110c29190611a39565b905080600684815481106110d9576110d86118c3565b5b90600052602060002090600b020160020160008282546110f99190611b01565b9250508190555060016002600085815260200190815260200160002060003373ffffffffffffffffffffffffffffffffffffffff1673ffffffffffffffffffffffffffffffffffffffff16815260200190815260200160002060006101000a81548160ff021916908315150217905550505050565b806000151560068281548110611187576111866118c3565b5b90600052602060002090600b020160040160009054906101000a900460ff161515146111b257600080fd5b81600681815481106111c7576111c66118c3565b5b90600052602060002090600b020160070160019054906101000a900473ffffffffffffffffffffffffffffffffffffffff1673ffffffffffffffffffffffffffffffffffffffff163373ffffffffffffffffffffffffffffffffffffffff161461123057600080fd5b6001151560068281548110611248576112476118c3565b5b90600052602060002090600b020160070160009054906101000a900460ff1615150361127357600080fd5b3373ffffffffffffffffffffffffffffffffffffffff166006848154811061129e5761129d6118c3565b5b90600052602060002090600b020160070160019054906101000a900473ffffffffffffffffffffffffffffffffffffffff1673ffffffffffffffffffffffffffffffffffffffff16146112f057600080fd5b600160068481548110611306576113056118c3565b5b90600052602060002090600b020160070160006101000a81548160ff021916908315150217905550600060068481548110611344576113436118c3565b5b90600052602060002090600b0201600a0160006101000a81548160ff021916908315150217905550505050565b60035481565b82805461138390611892565b90600052602060002090601f0160209004810192826113a557600085556113ec565b82601f106113be57805160ff19168380011785556113ec565b828001600101855582156113ec579182015b828111156113eb5782518255916020019190600101906113d0565b5b5090506113f991906113fd565b5090565b5b808211156114165760008160009055506001016113fe565b5090565b6000604051905090565b600080fd5b600080fd5b6000819050919050565b6114418161142e565b811461144c57600080fd5b50565b60008135905061145e81611438565b92915050565b60006020828403121561147a57611479611424565b5b60006114888482850161144f565b91505092915050565b600081519050919050565b600082825260208201905092915050565b60005b838110156114cb5780820151818401526020810190506114b0565b838111156114da576000848401525b50505050565b6000601f19601f8301169050919050565b60006114fc82611491565b611506818561149c565b93506115168185602086016114ad565b61151f816114e0565b840191505092915050565b6115338161142e565b82525050565b60008115159050919050565b61154e81611539565b82525050565b600073ffffffffffffffffffffffffffffffffffffffff82169050919050565b600061157f82611554565b9050919050565b61158f81611574565b82525050565b60006101808201905081810360008301526115b0818f6114f1565b90506115bf602083018e61152a565b6115cc604083018d61152a565b6115d9606083018c61152a565b6115e6608083018b611545565b6115f360a083018a61152a565b61160060c083018961152a565b61160d60e0830188611545565b61161b610100830187611586565b611629610120830186611586565b61163761014083018561152a565b611645610160830184611545565b9d9c50505050505050505050505050565b6000602082019050818103600083015261167081846114f1565b905092915050565b600060208201905061168d600083018461152a565b92915050565b600080fd5b600080fd5b7f4e487b7100000000000000000000000000000000000000000000000000000000600052604160045260246000fd5b6116d5826114e0565b810181811067ffffffffffffffff821117156116f4576116f361169d565b5b80604052505050565b600061170761141a565b905061171382826116cc565b919050565b600067ffffffffffffffff8211156117335761173261169d565b5b61173c826114e0565b9050602081019050919050565b82818337600083830152505050565b600061176b61176684611718565b6116fd565b90508281526020810184848401111561178757611786611698565b5b611792848285611749565b509392505050565b600082601f8301126117af576117ae611693565b5b81356117bf848260208601611758565b91505092915050565b6117d181611574565b81146117dc57600080fd5b50565b6000813590506117ee816117c8565b92915050565b60008060006060848603121561180d5761180c611424565b5b600084013567ffffffffffffffff81111561182b5761182a611429565b5b6118378682870161179a565b9350506020611848868287016117df565b92505060406118598682870161144f565b9150509250925092565b7f4e487b7100000000000000000000000000000000000000000000000000000000600052602260045260246000fd5b600060028204905060018216806118aa57607f821691505b6020821081036118bd576118bc611863565b5b50919050565b7f4e487b7100000000000000000000000000000000000000000000000000000000600052603260045260246000fd5b6000604082019050611907600083018561152a565b6119146020830184611586565b9392505050565b60006040820190506119306000830185611586565b61193d602083018461152a565b9392505050565b61194d81611539565b811461195857600080fd5b50565b60008151905061196a81611944565b92915050565b60006020828403121561198657611985611424565b5b60006119948482850161195b565b91505092915050565b7f796f75206861766520766f746500000000000000000000000000000000000000600082015250565b60006119d3600d8361149c565b91506119de8261199d565b602082019050919050565b60006020820190508181036000830152611a02816119c6565b9050919050565b6000602082019050611a1e6000830184611586565b92915050565b600081519050611a3381611438565b92915050565b600060208284031215611a4f57611a4e611424565b5b6000611a5d84828501611a24565b91505092915050565b7f796f752063616e277420766f7465000000000000000000000000000000000000600082015250565b6000611a9c600e8361149c565b9150611aa782611a66565b602082019050919050565b60006020820190508181036000830152611acb81611a8f565b9050919050565b7f4e487b7100000000000000000000000000000000000000000000000000000000600052601160045260246000fd5b6000611b0c8261142e565b9150611b178361142e565b9250827fffffffffffffffffffffffffffffffffffffffffffffffffffffffffffffffff03821115611b4c57611b4b611ad2565b5b828201905092915050565b6000611b628261142e565b9150611b6d8361142e565b925082821015611b8057611b7f611ad2565b5b828203905092915050565b6000611b968261142e565b91507fffffffffffffffffffffffffffffffffffffffffffffffffffffffffffffffff8203611bc857611bc7611ad2565b5b60018201905091905056fea2646970667358221220f63750fab6782486ea0e423a63d12ab85bb60edeadac5214d83cbd4deb59293e64736f6c634300080d0033",
  "immutableReferences": {},
  "source": "// SPDX-License-Identifier: MIT\npragma solidity >=0.4.22 <0.9.0;\n\nimport \"@openzeppelin/contracts/access/Ownable.sol\";\nimport \"./Token.sol\";\n\ncontract educatorDao{\n\n  Token tokens;\n\n  constructor(address _token) public {\n     tokens = Token(_token);\n  }\n\n   //struct proposal \n   struct Proposal{\n     string message;\n     uint256 proposalId;\n     uint256 votesFor;\n     uint256 votesAgainst;\n     bool passed;\n     uint256 startingTime;\n     uint256 endingTime;\n     bool locked;\n     address sender;\n     address _receiver;\n     uint256 target;\n     bool isActive;\n   }\n\n   /*                                     MODIFIERS                               */\n   modifier passed(uint256 _id){\n     require(proposals[_id].passed == false);\n     _;\n   }\n\n   //only sender can modify the state variable\n   modifier onlySender(uint256 _id){\n       require(msg.sender == proposals[_id].sender);\n       require(proposals[_id].locked != true);\n\n       _;\n   }\n\n\n   /*                                     MAPPINGS                                */\n   // mapping of individual addres to balance\n   mapping(address => uint256) balance;\n\n   /*mapping of proposalId to address then boolean\n    func: to check if the user has already vote and delegate their vote \n    params: takes in the proposalId, the sender address*/\n    mapping(uint256 => mapping(address => bool)) hasVoted;\n\n   //no of users\n   uint256 public users;\n   uint256 public proposalIds;\n   uint256 public deadline = block.timestamp + 30 seconds;\n   \n    \n\n   Proposal[] public proposals;\n\n \n  /*                                   FUNCTIONS                                    */ \n\n   //add proposal\n   function addProposal\n   (string memory _message, address _receiver, uint256 _target)\n    public {\n     proposalIds++;\n     proposals.push(Proposal(_message, proposalIds - 1, 0, 0, false, block.timestamp, block.timestamp + 3 days, false, msg.sender, _receiver, _target,true));\n     tokens.registerVoter(proposalIds - 1);\n   }\n\n   //vote for the proposal\n   function voteFor(uint256 _proposalId) public  passed(_proposalId){\n      require(tokens.verifyVoters(msg.sender, _proposalId) == true);\n      //to check if proposal has not expired\n      require(timeLeft(_proposalId) > 0);\n      //to check if sender has not vote\n      require(hasVoted[_proposalId][msg.sender] == false, \"you have vote\");\n      //to check whether the sender can vote\n      require(tokens.getVotes(msg.sender) > 0, \"you can't vote\");\n      uint256 bal = tokens.getVotes(msg.sender);\n      proposals[_proposalId].votesFor += bal;\n      //set hasVote to true\n      hasVoted[_proposalId][msg.sender] = true;\n   }\n\n   //votes against the proposal\n   function VoteAgainst(uint256 _proposalId) public  passed(_proposalId){\n      require(tokens.verifyVoters(msg.sender, _proposalId) == true);\n      //to check if proposal has not expired\n      require(timeLeft(_proposalId) > 0);\n      //to check if sender has not vote\n      require(hasVoted[_proposalId][msg.sender] == false, \"you have vote\");\n      //to check whether the sender can vote\n      require(tokens.getVotes(msg.sender) > 0, \"you can't vote\");\n      uint256 bal = tokens.getVotes(msg.sender);\n      proposals[_proposalId].votesFor += bal;\n\n      //set hasVote to true\n      hasVoted[_proposalId][msg.sender] = true;\n   }\n \n   //execute the proposal if voting is done and time is up\n   function executeProposal(uint256 _proposalId) public passed(_proposalId)  returns(string memory){\n      //to check if proposal has expired\n     require(timeLeft(_proposalId) == 0);\n\n     require(proposals[_proposalId].sender == msg.sender);\n  \n     if(proposals[_proposalId].votesFor > proposals[_proposalId].votesAgainst){\n       proposals[_proposalId].passed = true;\n\n       tokens.transfer(proposals[_proposalId].target, proposals[_proposalId]._receiver);\n       return \"success\"; \n\n     }else{\n      proposals[_proposalId].isActive = false;\n      return \"fail\";\n      \n    \n\n     }\n   }\n\n   //cancel a proposal\n   function cancelProposal(uint256 _proposalId) public passed(_proposalId) onlySender(_proposalId) {\n      require(proposals[_proposalId].sender == msg.sender);\n      proposals[_proposalId].locked = true;\n      proposals[_proposalId].isActive = false;\n   }\n   \n\n   //time left for a propo\n   function timeLeft(uint256 _proposalId) public view returns(uint256){\n        if(block.timestamp > proposals[_proposalId].endingTime){\n           return 0;\n        }else{\n          return proposals[_proposalId].endingTime - block.timestamp;\n        }\n   }\n \n}",
  "sourcePath": "/home/malik/Desktop/crypto/Governance/contracts/Charity.sol",
  "compiler": {
    "name": "solc",
    "version": "0.8.13+commit.abaa5c0e.Emscripten.clang"
  },
  "schemaVersion": "3.4.7",
  "updatedAt": "2022-05-27T19:01:32.222Z",
  "devdoc": {
    "kind": "dev",
    "methods": {},
    "version": 1
  },
  "userdoc": {
    "kind": "user",
    "methods": {},
    "version": 1
  }
}